{
  "_format": "hh-sol-artifact-1",
  "contractName": "Crowdfunding",
  "sourceName": "contracts/crowdfunding.sol",
  "abi": [
    {
      "anonymous": false,
      "inputs": [
        {
          "indexed": false,
          "internalType": "uint256",
          "name": "campaignId",
          "type": "uint256"
        },
        {
          "indexed": false,
          "internalType": "address",
          "name": "creator",
          "type": "address"
        },
        {
          "indexed": false,
          "internalType": "uint256",
          "name": "goal",
          "type": "uint256"
        },
        {
          "indexed": false,
          "internalType": "uint256",
          "name": "deadline",
          "type": "uint256"
        }
      ],
      "name": "CampaignCreated",
      "type": "event"
    },
    {
      "anonymous": false,
      "inputs": [
        {
          "indexed": false,
          "internalType": "uint256",
          "name": "campaignId",
          "type": "uint256"
        },
        {
          "indexed": false,
          "internalType": "address",
          "name": "contributor",
          "type": "address"
        },
        {
          "indexed": false,
          "internalType": "uint256",
          "name": "amount",
          "type": "uint256"
        }
      ],
      "name": "FundPledged",
      "type": "event"
    },
    {
      "anonymous": false,
      "inputs": [
        {
          "indexed": false,
          "internalType": "uint256",
          "name": "campaignId",
          "type": "uint256"
        },
        {
          "indexed": false,
          "internalType": "address",
          "name": "creator",
          "type": "address"
        },
        {
          "indexed": false,
          "internalType": "uint256",
          "name": "amount",
          "type": "uint256"
        }
      ],
      "name": "FundWithdrawn",
      "type": "event"
    },
    {
      "anonymous": false,
      "inputs": [
        {
          "indexed": false,
          "internalType": "uint256",
          "name": "campaignId",
          "type": "uint256"
        },
        {
          "indexed": false,
          "internalType": "address",
          "name": "contributor",
          "type": "address"
        },
        {
          "indexed": false,
          "internalType": "uint256",
          "name": "amount",
          "type": "uint256"
        }
      ],
      "name": "RefundIssued",
      "type": "event"
    },
    {
      "inputs": [],
      "name": "campaignCount",
      "outputs": [
        {
          "internalType": "uint256",
          "name": "",
          "type": "uint256"
        }
      ],
      "stateMutability": "view",
      "type": "function"
    },
    {
      "inputs": [
        {
          "internalType": "uint256",
          "name": "",
          "type": "uint256"
        }
      ],
      "name": "campaigns",
      "outputs": [
        {
          "internalType": "address payable",
          "name": "creator",
          "type": "address"
        },
        {
          "internalType": "uint256",
          "name": "goal",
          "type": "uint256"
        },
        {
          "internalType": "uint256",
          "name": "pledgedAmount",
          "type": "uint256"
        },
        {
          "internalType": "uint256",
          "name": "deadline",
          "type": "uint256"
        },
        {
          "internalType": "bool",
          "name": "isClaimed",
          "type": "bool"
        }
      ],
      "stateMutability": "view",
      "type": "function"
    },
    {
      "inputs": [
        {
          "internalType": "uint256",
          "name": "_goal",
          "type": "uint256"
        },
        {
          "internalType": "uint256",
          "name": "_durationInDays",
          "type": "uint256"
        }
      ],
      "name": "createCampaign",
      "outputs": [],
      "stateMutability": "nonpayable",
      "type": "function"
    },
    {
      "inputs": [
        {
          "internalType": "uint256",
          "name": "_campaignId",
          "type": "uint256"
        }
      ],
      "name": "getCampaignDetails",
      "outputs": [
        {
          "internalType": "address",
          "name": "creator",
          "type": "address"
        },
        {
          "internalType": "uint256",
          "name": "goal",
          "type": "uint256"
        },
        {
          "internalType": "uint256",
          "name": "pledgedAmount",
          "type": "uint256"
        },
        {
          "internalType": "uint256",
          "name": "deadline",
          "type": "uint256"
        },
        {
          "internalType": "bool",
          "name": "isClaimed",
          "type": "bool"
        }
      ],
      "stateMutability": "view",
      "type": "function"
    },
    {
      "inputs": [
        {
          "internalType": "uint256",
          "name": "_campaignId",
          "type": "uint256"
        }
      ],
      "name": "pledgeFunds",
      "outputs": [],
      "stateMutability": "payable",
      "type": "function"
    },
    {
      "inputs": [
        {
          "internalType": "uint256",
          "name": "_campaignId",
          "type": "uint256"
        }
      ],
      "name": "requestRefund",
      "outputs": [],
      "stateMutability": "nonpayable",
      "type": "function"
    },
    {
      "inputs": [
        {
          "internalType": "uint256",
          "name": "_campaignId",
          "type": "uint256"
        }
      ],
      "name": "withdrawFunds",
      "outputs": [],
      "stateMutability": "nonpayable",
      "type": "function"
    }
  ],
  "bytecode": "0x608060405234801561001057600080fd5b506111e2806100206000396000f3fe6080604052600436106100705760003560e01c80637274e30d1161004e5780637274e30d1461010857806383ada1cb14610133578063a4b2409e1461014f578063d993de621461017857610070565b8063141961bc14610075578063155dd5ee146100b657806322502268146100df575b600080fd5b34801561008157600080fd5b5061009c600480360381019061009791906109f0565b6101b9565b6040516100ad959493929190610a88565b60405180910390f35b3480156100c257600080fd5b506100dd60048036038101906100d891906109f0565b61021c565b005b3480156100eb57600080fd5b5061010660048036038101906101019190610adb565b6104bc565b005b34801561011457600080fd5b5061011d6105e6565b60405161012a9190610b1b565b60405180910390f35b61014d600480360381019061014891906109f0565b6105ec565b005b34801561015b57600080fd5b50610176600480360381019061017191906109f0565b61073e565b005b34801561018457600080fd5b5061019f600480360381019061019a91906109f0565b61093d565b6040516101b0959493929190610b57565b60405180910390f35b60016020528060005260406000206000915090508060000160009054906101000a900473ffffffffffffffffffffffffffffffffffffffff16908060010154908060020154908060030154908060040160009054906101000a900460ff16905085565b806001600082815260200190815260200160002060000160009054906101000a900473ffffffffffffffffffffffffffffffffffffffff1673ffffffffffffffffffffffffffffffffffffffff163373ffffffffffffffffffffffffffffffffffffffff16146102c1576040517f08c379a00000000000000000000000000000000000000000000000000000000081526004016102b890610c2d565b60405180910390fd5b6000600160008481526020019081526020016000209050806003015442101561031f576040517f08c379a000000000000000000000000000000000000000000000000000000000815260040161031690610c99565b60405180910390fd5b80600101548160020154101561036a576040517f08c379a000000000000000000000000000000000000000000000000000000000815260040161036190610d05565b60405180910390fd5b8060040160009054906101000a900460ff16156103bc576040517f08c379a00000000000000000000000000000000000000000000000000000000081526004016103b390610d71565b60405180910390fd5b60018160040160006101000a81548160ff021916908315150217905550600081600201549050600082600201819055508160000160009054906101000a900473ffffffffffffffffffffffffffffffffffffffff1673ffffffffffffffffffffffffffffffffffffffff166108fc829081150290604051600060405180830381858888f19350505050158015610456573d6000803e3d6000fd5b507f02906603b74312f6a4dfd85449e11574124d01fdb3407ad2f7f50b808cf3e7ce848360000160009054906101000a900473ffffffffffffffffffffffffffffffffffffffff16836040516104ae93929190610df0565b60405180910390a150505050565b600082116104ff576040517f08c379a00000000000000000000000000000000000000000000000000000000081526004016104f690610e73565b60405180910390fd5b600062015180826105109190610ec2565b4261051b9190610f04565b905060008081548092919061052f90610f38565b9190505550600060016000805481526020019081526020016000209050338160000160006101000a81548173ffffffffffffffffffffffffffffffffffffffff021916908373ffffffffffffffffffffffffffffffffffffffff1602179055508381600101819055508181600301819055507f91b289a829e71d811b8c69e4a24ba2d40d115d8a236e9a724cb3bb2d43cf72236000543386856040516105d89493929190610f80565b60405180910390a150505050565b60005481565b600060016000838152602001908152602001600020905080600301544210610649576040517f08c379a000000000000000000000000000000000000000000000000000000000815260040161064090611011565b60405180910390fd5b6000341161068c576040517f08c379a00000000000000000000000000000000000000000000000000000000081526004016106839061107d565b60405180910390fd5b348160020160008282546106a09190610f04565b92505081905550348160050160003373ffffffffffffffffffffffffffffffffffffffff1673ffffffffffffffffffffffffffffffffffffffff16815260200190815260200160002060008282546106f89190610f04565b925050819055507fd0898f7172a1ff5f48f27e802435a7c03d44d1320c242baef1881ac8369f27838233346040516107329392919061109d565b60405180910390a15050565b6000600160008381526020019081526020016000209050806003015442101561079c576040517f08c379a000000000000000000000000000000000000000000000000000000000815260040161079390610c99565b60405180910390fd5b80600101548160020154106107e6576040517f08c379a00000000000000000000000000000000000000000000000000000000081526004016107dd90611120565b60405180910390fd5b60008160050160003373ffffffffffffffffffffffffffffffffffffffff1673ffffffffffffffffffffffffffffffffffffffff1681526020019081526020016000205490506000811161086f576040517f08c379a00000000000000000000000000000000000000000000000000000000081526004016108669061118c565b60405180910390fd5b60008260050160003373ffffffffffffffffffffffffffffffffffffffff1673ffffffffffffffffffffffffffffffffffffffff168152602001908152602001600020819055503373ffffffffffffffffffffffffffffffffffffffff166108fc829081150290604051600060405180830381858888f193505050501580156108fc573d6000803e3d6000fd5b507f7a482fdeb6bc9a1376f597068a214a7a39472bb2eff1b8cad21ba04f49ddca1b8333836040516109309392919061109d565b60405180910390a1505050565b6000806000806000806001600088815260200190815260200160002090508060000160009054906101000a900473ffffffffffffffffffffffffffffffffffffffff168160010154826002015483600301548460040160009054906101000a900460ff16955095509550955095505091939590929450565b600080fd5b6000819050919050565b6109cd816109ba565b81146109d857600080fd5b50565b6000813590506109ea816109c4565b92915050565b600060208284031215610a0657610a056109b5565b5b6000610a14848285016109db565b91505092915050565b600073ffffffffffffffffffffffffffffffffffffffff82169050919050565b6000610a4882610a1d565b9050919050565b610a5881610a3d565b82525050565b610a67816109ba565b82525050565b60008115159050919050565b610a8281610a6d565b82525050565b600060a082019050610a9d6000830188610a4f565b610aaa6020830187610a5e565b610ab76040830186610a5e565b610ac46060830185610a5e565b610ad16080830184610a79565b9695505050505050565b60008060408385031215610af257610af16109b5565b5b6000610b00858286016109db565b9250506020610b11858286016109db565b9150509250929050565b6000602082019050610b306000830184610a5e565b92915050565b6000610b4182610a1d565b9050919050565b610b5181610b36565b82525050565b600060a082019050610b6c6000830188610b48565b610b796020830187610a5e565b610b866040830186610a5e565b610b936060830185610a5e565b610ba06080830184610a79565b9695505050505050565b600082825260208201905092915050565b7f4f6e6c79207468652063726561746f722063616e2063616c6c2074686973206660008201527f756e6374696f6e00000000000000000000000000000000000000000000000000602082015250565b6000610c17602783610baa565b9150610c2282610bbb565b604082019050919050565b60006020820190508181036000830152610c4681610c0a565b9050919050565b7f43616d706169676e206973207374696c6c206f6e676f696e6700000000000000600082015250565b6000610c83601983610baa565b9150610c8e82610c4d565b602082019050919050565b60006020820190508181036000830152610cb281610c76565b9050919050565b7f43616d706169676e20676f616c206e6f74207265616368656400000000000000600082015250565b6000610cef601983610baa565b9150610cfa82610cb9565b602082019050919050565b60006020820190508181036000830152610d1e81610ce2565b9050919050565b7f46756e647320616c726561647920636c61696d65640000000000000000000000600082015250565b6000610d5b601583610baa565b9150610d6682610d25565b602082019050919050565b60006020820190508181036000830152610d8a81610d4e565b9050919050565b6000819050919050565b6000610db6610db1610dac84610a1d565b610d91565b610a1d565b9050919050565b6000610dc882610d9b565b9050919050565b6000610dda82610dbd565b9050919050565b610dea81610dcf565b82525050565b6000606082019050610e056000830186610a5e565b610e126020830185610de1565b610e1f6040830184610a5e565b949350505050565b7f476f616c2073686f756c642062652067726561746572207468616e207a65726f600082015250565b6000610e5d602083610baa565b9150610e6882610e27565b602082019050919050565b60006020820190508181036000830152610e8c81610e50565b9050919050565b7f4e487b7100000000000000000000000000000000000000000000000000000000600052601160045260246000fd5b6000610ecd826109ba565b9150610ed8836109ba565b9250828202610ee6816109ba565b91508282048414831517610efd57610efc610e93565b5b5092915050565b6000610f0f826109ba565b9150610f1a836109ba565b9250828201905080821115610f3257610f31610e93565b5b92915050565b6000610f43826109ba565b91507fffffffffffffffffffffffffffffffffffffffffffffffffffffffffffffffff8203610f7557610f74610e93565b5b600182019050919050565b6000608082019050610f956000830187610a5e565b610fa26020830186610b48565b610faf6040830185610a5e565b610fbc6060830184610a5e565b95945050505050565b7f43616d706169676e2068617320656e6465640000000000000000000000000000600082015250565b6000610ffb601283610baa565b915061100682610fc5565b602082019050919050565b6000602082019050818103600083015261102a81610fee565b9050919050565b7f506c65646765206d7573742062652067726561746572207468616e207a65726f600082015250565b6000611067602083610baa565b915061107282611031565b602082019050919050565b600060208201905081810360008301526110968161105a565b9050919050565b60006060820190506110b26000830186610a5e565b6110bf6020830185610b48565b6110cc6040830184610a5e565b949350505050565b7f43616d706169676e20776173207375636365737366756c000000000000000000600082015250565b600061110a601783610baa565b9150611115826110d4565b602082019050919050565b60006020820190508181036000830152611139816110fd565b9050919050565b7f4e6f2066756e647320746f20726566756e640000000000000000000000000000600082015250565b6000611176601283610baa565b915061118182611140565b602082019050919050565b600060208201905081810360008301526111a581611169565b905091905056fea264697066735822122014bb03587948fd5309265bff642320e5bcfcb5eb2b3bddf00e3f43f8d6d5a3b364736f6c63430008180033",
  "linkReferences": {},
  "deployedLinkReferences": {}
}